:020000040000FA
:020000000528D1
:040002000034003492
:080008000E28831685011F304C
:1000100086008312850190308B000D281C208F01F3
:1000200086180F1406198F1486190F15061A8F15C6
:100030001F208F018B1009008C0B1C280800051451
:10004000392005100F180514392005143920051022
:100050008F18051439200514392005100F190514BF
:1000600039200514392005108F1905143920051081
:1000700008000D308C00D6308D0005308E008C0BC2
:1000800042288D0B44288E0B3F28462847284828B5
:02009000080066
:00000001FF
